:10000000020A42E5082403F582E43400F583E005A2
:100010000822900000300703900003E475F00112FD
:10002000055A0205022000E97F2ED2008018EF5405
:100030000F2490D43440D4FF30040BEF24BFB41A03
:100040000050032461FFE50960021509050CE50C69
:100050007002050B30070E900000E475F0011205E8
:100060005AEF020548020B5C7403D2078003E4C216
:1000700007F508900000120571E4F509F50BF50C81
:10008000E50960077F2012004680F5750AFFC2016E
:10009000C200C202C203C205C206C208120012FF99
:1000A000700D3007057F00120057AF0CAE0B22B465
:1000B000255FC2D5C204120012FF24D0B40A00503A
:1000C0001A75F00A780930D50508B6FF0106C6A4EE
:1000D00026F620D5047002D20380D924CFB41A00AA
:1000E000EF5004C2E5D204020258D20180C6D20009
:1000F00080C0D20280BCD2D580BAD20580B47F2025
:100100001200462002077401B5090040F1120003F5
:10011000FF120046020080D208D20680951200032A
:10012000FB120003FA120003F94A4B700679297A90
:10013000037BFF20022EE509602A7E008E827583F4
:100140000012051B60060EEE650A70F0C2D5EBC00A
:10015000E0EAC0E0E9C0E0EE12029FD0E0F9D0E0B2
:10016000FAD0E0FB120502FF60AAEBC0E0EAC0E0B3
:10017000E9C0E0120046D0E02401F9D0E03400FAF2
:10018000D0E0FBE50A0460DCD50AD980877BFF7AE2
:1001900002799BD202809C791080027908C206C243
:1001A000088008D2D5790A8004790AC2D5E50A0404
:1001B0007002F50AE4FAFDFEFF120003FC7B082042
:1001C0000113120003FD7B1030000A120003FE121F
:1001D0000003FF7B20EC3382D592D55013C3E4306B
:1001E00000069FFFE49EFEE42001039DFDE49CFCCD
:1001F000E4CBF8C201EC700CCFCECDCCE824F8F8FB
:1002000070F38017C3EF33FFEE33FEED33FDEC33B5
:10021000FCEB33FB994002FB0FD8E9EB300105F80A
:10022000D0E0C448B201C0E00AEC4D4E4F78207BCC
:100230000070C2EAB50A0040BCC0E01202A1D0F0D2
:10024000D0E0200104C4C0E0C4B201C0F012002F0D
:10025000D0F0D5F0EB02008012057A011D53019712
:100260005800EE4C00EA42019B4F01A34401A34910
:1002700001034301A955018D46018D45018D4703B9
:10028000495000F22D00F62E01192B00FA23011718
:100290002003322A00B248000001113F3F3F00799D
:1002A0000AA2D5200314300509B910020404B908C4
:1002B0000104A2D52006025001042002689202B572
:1002C00009005034C0E07F203003197F30A2027251
:1002D000067205500F1202F8C202C206C205C20819
:1002E0007F30800F300503E9C0E01200463005037F
:1002F000D0E0F9D0E0B509CC3005177F30B9100C4B
:100300001200467F583004077F788003B908031233
:1003100000463002057F2D0200467F202008F87F2E
:100320002B2006F322920280CF286E756C6C290078
:10033000D2011200033001F8C201780930D501085A
:10034000F60200B22D504349581200032403B405AD
:10035000004001E490034493120037743A120037CE
:10036000D203750904020197E88FF0A4CC8BF0A4A6
:100370002CFCE98EF0A42CFC8AF0EDA42CFCEA8E77
:10038000F0A4CDA8F08BF0A42DCC3825F0FDE98F9A
:10039000F0A42CCD35F0FCEB8EF0A4FEA9F0EB8F91
:1003A000F0A4CFC5F02ECD39FEE43CFCEAA42DCE5E
:1003B00035F0FDE43CFC2275F008758200EF2FFF5C
:1003C000EE33FECD33CDCC33CCC58233C5829BED2D
:1003D0009AEC99E58298400CF582EE9BFEED9AFD31
:1003E000EC99FC0FD5F0D6E4CEFBE4CDFAE4CCF9E1
:1003F000A88222B800C1B90059BA002DEC8BF08454
:10040000CFCECDFCE5F0CBF97818EF2FFFEE33FE21
:10041000ED33FDEC33FCEB33FB10D703994004EBD9
:1004200099FB0FD8E5E4F9FA227818EF2FFFEE33A5
:10043000FEED33FDEC33FCC933C910D7059BE99AB7
:100440004007EC9BFCE99AF90FD8E0E4C9FAE4CC48
:10045000FB2275F010EF2FFFEE33FEED33FDCC33B2
:10046000CCC833C810D7079BEC9AE899400AED9B9B
:10047000FDEC9AFCE899F80FD5F0DAE4CDFBE4CC7A
:10048000FAE4C8F922E8600FECC313FCED13FDEEAB
:1004900013FEEF13FFD8F122ECF0A3EDF0A3EEF082
:1004A000A3EFF022A8828583F0D083D0821204BB10
:1004B0001204BB1204BB1204BBE473E493A3C58310
:1004C000C5F0C583C8C582C8F0A3C583C5F0C58380
:1004D000C8C582C822D083D082F8E4937012740118
:1004E00093700DA3A393F8740193F5828883E4734A
:1004F000740293B5F0067403936860E9A3A3A3A301
:1005000080D8BB010689828A83E0225002E722BBA1
:10051000FE02E32289828A83E49322BB010CE582F6
:1005200029F582E5833AF583E0225006E92582F831
:10053000E622BBFE06E92582F8E222E58229F58261
:10054000E5833AF583E49322BB010689828A83F02E
:10055000225002F722BBFE01F322F8E0FBA3A3E046
:10056000F925F0F0E582158270021583E0FA38F083
:1005700022EBF0A3EAF0A3E9F022D083D082F8E4E2
:10058000937012740193700DA3A393F8740193F503
:10059000828883E4737402936860EFA3A3A380DF6F
:1005A000900000120498900004E014605E14700340
:1005B0000206B6240260030207487598504389205A
:1005C000438780438E10A2AF920CC2AF75C7AA7545
:1005D000C755E4F591A20C92AF53C4DF7B10FAF932
:1005E000F8900000E0FCA3E0FDA3E0FEA3E0FF1212
:1005F00003F3900005E0F8A3E0F9A3E0FAA3E0FB21
:100600001203F3EFF404F58DD28E227598504387D0
:100610008053C4F8A2AF920CC2AF75C7AA75C75574
:10062000E4F591A20C92AF43C4207B10FAF9F89044
:100630000000E0FCA3E0FDA3E0FEA3E0FF1203F353
:10064000900005E0F8A3E0F9A3E0FAA3E0FB1203B1
:10065000F3C3E49FFFE49EFE74019DFDE49CFC78DF
:10066000081204858FC6E47B10FAF9F8900000E0C8
:10067000FCA3E0FDA3E0FEA3E0FF1203F39000055E
:10068000E0F8A3E0F9A3E0FAA3E0FB1203F3C3E46C
:100690009FFFE49EFE74019DFDE49CFCEFE48FC58A
:1006A000A2AF920CC2AF75C7AA75C755F591A20C3F
:1006B00092AF43C4082275F85075C480E47B10FAE9
:1006C000F9F8900000E0FCA3E0FDA3E0FEA3E0FF4A
:1006D0001203F3900005E0F8A3E0F9A3E0FAA3E029
:1006E000FB1203F3C3E49FFFE49EFE74019DFDE44F
:1006F0009CFC78081204858FC6E47B10FAF9F89008
:100700000000E0FCA3E0FDA3E0FEA3E0FF1203F382
:10071000900005E0F8A3E0F9A3E0FAA3E0FB1203E0
:10072000F3C3E49FFFE49EFE74019DFDE49CFCEF97
:10073000E48FC5A2AF920CC2AF75C7AA75C755F5B5
:1007400091A20C92AF43C40822A2AF920CC2AF7523
:10075000C7AA75C755439F01A20C92AFE4F591EF6C
:1007600024F9600C14600E2402700D75A638800800
:1007700075A630800375A630E4F5A775AF04A2AF67
:10078000920CC2AF75C7AA75C75543A401A20C92BB
:10079000AF85AE0805A6A2AF920CC2AF75C7AA7509
:1007A000C75543A401A20C92AF85AE09EF24F860AF
:1007B0000302083BE50825E0FFE50954012FFF543B
:1007C000C0F50BEF543FF50A74F22FFF75AF0C75AF
:1007D000A601E4F5A7A2AF920CC2AFA2AF920CC2E1
:1007E000AF75C7AA75C75543AA40A20C92AF75C78B
:1007F000AA75C75543A401A20C92AFAEAEEE644BEE
:10080000600EAEAEEE64526007AEAEEE645370267C
:10081000E50AC3940F748094805017E50BFD644083
:10082000600AED64806005ED64C0700A74F22FFF09
:10083000800474FC2FFFEFC313F50875C7AA75C7B2
:100840005585088475C7AA75C755850985A2AF92D5
:100850000CC2AF75C7AA75C755539FFEA20C92AFC5
:10086000227F06120749120B257BFF7A0B79A31210
:10087000006E53E8F043E804A2AF920CC2AF75C714
:10088000AA75C755E4F591A20C92AF43B12053B2BB
:10089000DFF5F643F61043E101A2AF920CC2AF754B
:1008A000C7AA75C755F591A20C92AFC2EF7D057F1F
:1008B00001120B837DFF7C037F01120ADCA2AF9241
:1008C0000CC2AF75C7AA75C755E4F591A20C92AFDB
:1008D000C2EFA2AF920CC2AF75C7AA75C755F5910A
:1008E000A20C92AFD2EE30EF347BFF7A0B79CE12AE
:1008F000006EA2AF920CC2AF75C7AA75C755E4F5DA
:1009000091A20C92AFC2EFA2AF920CC2AF75C7AA70
:1009100075C755F591A20C92AFD2EE801EE5E2307C
:10092000E40B7BFF7A0B79F712006E800EE5E22074
:10093000E4097BFF7A0C792012006E9000047401A8
:10094000F0A374F4F0A37403F0A374E8F07F007EC6
:10095000367D6E7C0112095B808C229000001204AF
:1009600098A2AF920CC2AF75C7AA75C755E4F591AE
:10097000A20C92AF538EF75389F04389017B407AE2
:1009800042790FF8900000E0FCA3E0FDA3E0FEA395
:10099000E0FF1203F3A804A905AA06AB079000061E
:1009A000E0FEA3E0FFE4FCFD120368E47B0CFAF92F
:1009B000F81203F3C374FF9FFF74FF9EFEE49DFDD6
:1009C000E49CFCEFE4900008EFF07B407A42790F62
:1009D0007800900000E0FCA3E0FDA3E0FEA3E0FFB0
:1009E0001203F3A804A905AA06AB07900006E0FECF
:1009F000A3E0FFE4FCFD120368E47B0CFAF9F812B3
:100A000003F3C374FF9FFF74FF9EFEE49DFDE49C0F
:100A1000FC7808120485900004E07002A3E06021D5
:100A2000900008E0F58A8F8CD28C308DFDC28DC28B
:100A30008C900005E024FFF0900004E034FFF0808B
:100A4000D522787FE4F6D8FD9000007FFF7E03E496
:100A5000F0A3DFFCDEFA758121020A97020861E447
:100A600093A3F8E493A34003F68001F208DFF48037
:100A700029E493A3F85407240CC8C333C4540F4487
:100A800020C8834004F456800146F6DFE4800B0161
:100A900002040810204080900B9EE47E019360BC0D
:100AA000A3FF543F30E509541FFEE493A360010EF9
:100AB000CF54C025E060A840B8E493A3FAE493A320
:100AC000F8E493A3C8C582C8CAC583CAF0A3C8C541
:100AD00082C8CAC583CADFE9DEE780BEAB07E4F59A
:100AE00091ED540FF5CEECC4F854F0C868EDC45441
:100AF0000F48F5CFEB6017A2AF920CC2AF75C7AA33
:100B000075C755E4F591A20C92AF43E22022A2AF43
:100B1000920CC2AF75C7AA75C755E4F591A20C92A5
:100B2000AF53E2DF22A2AF920CC2AF75C7AA75C75E
:100B300055E4F591A20C92AF53B1BF53B2BF9000F0
:100B400004F0A31204A40001C2007F007E367D6E73
:100B50007C011205A0D299D209C2AC22EFB40A07D7
:100B6000740D120B67740A309811A899B8130CC24F
:100B7000983098FDA899C298B811F63099FDC2999D
:100B8000F59922E4F59153E18FEF5407FFC454F037
:100B900042E153E2F1ED5407FF25E042E222C109B0
:100BA000C10A000A2041444320636F6D7061726581
:100BB000206D6F646520666F72204D47353120745B
:100BC0006573742073746172742E2E2E20000A20B7
:100BD0004D4735312041444320636F6D706172652C
:100BE0002076616C75652073616D6520617320737B
:100BF000657474696E67000A204144432076616C15
:100C000075652067726561746572207468616E2015
:100C1000636F6D617072652073657474696E6700CF
:100C20000A204144432076616C7565206C657373BE
:100C3000207468616E20636F6D61707265207365EA
:060C40007474696E670088
:00000001FF
